{
  "_format": "hh-sol-artifact-1",
  "contractName": "SimpleStaking",
  "sourceName": "contracts/SimpleStaking.sol",
  "abi": [
    {
      "inputs": [
        {
          "internalType": "contract IERC20",
          "name": "asset_",
          "type": "address"
        },
        {
          "internalType": "string",
          "name": "name_",
          "type": "string"
        },
        {
          "internalType": "string",
          "name": "symbol_",
          "type": "string"
        }
      ],
      "stateMutability": "nonpayable",
      "type": "constructor"
    },
    {
      "inputs": [
        {
          "internalType": "address",
          "name": "spender",
          "type": "address"
        },
        {
          "internalType": "uint256",
          "name": "allowance",
          "type": "uint256"
        },
        {
          "internalType": "uint256",
          "name": "needed",
          "type": "uint256"
        }
      ],
      "name": "ERC20InsufficientAllowance",
      "type": "error"
    },
    {
      "inputs": [
        {
          "internalType": "address",
          "name": "sender",
          "type": "address"
        },
        {
          "internalType": "uint256",
          "name": "balance",
          "type": "uint256"
        },
        {
          "internalType": "uint256",
          "name": "needed",
          "type": "uint256"
        }
      ],
      "name": "ERC20InsufficientBalance",
      "type": "error"
    },
    {
      "inputs": [
        {
          "internalType": "address",
          "name": "approver",
          "type": "address"
        }
      ],
      "name": "ERC20InvalidApprover",
      "type": "error"
    },
    {
      "inputs": [
        {
          "internalType": "address",
          "name": "receiver",
          "type": "address"
        }
      ],
      "name": "ERC20InvalidReceiver",
      "type": "error"
    },
    {
      "inputs": [
        {
          "internalType": "address",
          "name": "sender",
          "type": "address"
        }
      ],
      "name": "ERC20InvalidSender",
      "type": "error"
    },
    {
      "inputs": [
        {
          "internalType": "address",
          "name": "spender",
          "type": "address"
        }
      ],
      "name": "ERC20InvalidSpender",
      "type": "error"
    },
    {
      "inputs": [
        {
          "internalType": "address",
          "name": "receiver",
          "type": "address"
        },
        {
          "internalType": "uint256",
          "name": "assets",
          "type": "uint256"
        },
        {
          "internalType": "uint256",
          "name": "max",
          "type": "uint256"
        }
      ],
      "name": "ERC4626ExceededMaxDeposit",
      "type": "error"
    },
    {
      "inputs": [
        {
          "internalType": "address",
          "name": "receiver",
          "type": "address"
        },
        {
          "internalType": "uint256",
          "name": "shares",
          "type": "uint256"
        },
        {
          "internalType": "uint256",
          "name": "max",
          "type": "uint256"
        }
      ],
      "name": "ERC4626ExceededMaxMint",
      "type": "error"
    },
    {
      "inputs": [
        {
          "internalType": "address",
          "name": "owner",
          "type": "address"
        },
        {
          "internalType": "uint256",
          "name": "shares",
          "type": "uint256"
        },
        {
          "internalType": "uint256",
          "name": "max",
          "type": "uint256"
        }
      ],
      "name": "ERC4626ExceededMaxRedeem",
      "type": "error"
    },
    {
      "inputs": [
        {
          "internalType": "address",
          "name": "owner",
          "type": "address"
        },
        {
          "internalType": "uint256",
          "name": "assets",
          "type": "uint256"
        },
        {
          "internalType": "uint256",
          "name": "max",
          "type": "uint256"
        }
      ],
      "name": "ERC4626ExceededMaxWithdraw",
      "type": "error"
    },
    {
      "inputs": [
        {
          "internalType": "address",
          "name": "token",
          "type": "address"
        }
      ],
      "name": "SafeERC20FailedOperation",
      "type": "error"
    },
    {
      "anonymous": false,
      "inputs": [
        {
          "indexed": true,
          "internalType": "address",
          "name": "owner",
          "type": "address"
        },
        {
          "indexed": true,
          "internalType": "address",
          "name": "spender",
          "type": "address"
        },
        {
          "indexed": false,
          "internalType": "uint256",
          "name": "value",
          "type": "uint256"
        }
      ],
      "name": "Approval",
      "type": "event"
    },
    {
      "anonymous": false,
      "inputs": [
        {
          "indexed": true,
          "internalType": "address",
          "name": "sender",
          "type": "address"
        },
        {
          "indexed": true,
          "internalType": "address",
          "name": "owner",
          "type": "address"
        },
        {
          "indexed": false,
          "internalType": "uint256",
          "name": "assets",
          "type": "uint256"
        },
        {
          "indexed": false,
          "internalType": "uint256",
          "name": "shares",
          "type": "uint256"
        }
      ],
      "name": "Deposit",
      "type": "event"
    },
    {
      "anonymous": false,
      "inputs": [
        {
          "indexed": true,
          "internalType": "address",
          "name": "from",
          "type": "address"
        },
        {
          "indexed": true,
          "internalType": "address",
          "name": "to",
          "type": "address"
        },
        {
          "indexed": false,
          "internalType": "uint256",
          "name": "value",
          "type": "uint256"
        }
      ],
      "name": "Transfer",
      "type": "event"
    },
    {
      "anonymous": false,
      "inputs": [
        {
          "indexed": true,
          "internalType": "address",
          "name": "sender",
          "type": "address"
        },
        {
          "indexed": true,
          "internalType": "address",
          "name": "receiver",
          "type": "address"
        },
        {
          "indexed": true,
          "internalType": "address",
          "name": "owner",
          "type": "address"
        },
        {
          "indexed": false,
          "internalType": "uint256",
          "name": "assets",
          "type": "uint256"
        },
        {
          "indexed": false,
          "internalType": "uint256",
          "name": "shares",
          "type": "uint256"
        }
      ],
      "name": "Withdraw",
      "type": "event"
    },
    {
      "inputs": [
        {
          "internalType": "address",
          "name": "owner",
          "type": "address"
        },
        {
          "internalType": "address",
          "name": "spender",
          "type": "address"
        }
      ],
      "name": "allowance",
      "outputs": [
        {
          "internalType": "uint256",
          "name": "",
          "type": "uint256"
        }
      ],
      "stateMutability": "view",
      "type": "function"
    },
    {
      "inputs": [
        {
          "internalType": "address",
          "name": "spender",
          "type": "address"
        },
        {
          "internalType": "uint256",
          "name": "value",
          "type": "uint256"
        }
      ],
      "name": "approve",
      "outputs": [
        {
          "internalType": "bool",
          "name": "",
          "type": "bool"
        }
      ],
      "stateMutability": "nonpayable",
      "type": "function"
    },
    {
      "inputs": [],
      "name": "asset",
      "outputs": [
        {
          "internalType": "address",
          "name": "",
          "type": "address"
        }
      ],
      "stateMutability": "view",
      "type": "function"
    },
    {
      "inputs": [
        {
          "internalType": "address",
          "name": "account",
          "type": "address"
        }
      ],
      "name": "balanceOf",
      "outputs": [
        {
          "internalType": "uint256",
          "name": "",
          "type": "uint256"
        }
      ],
      "stateMutability": "view",
      "type": "function"
    },
    {
      "inputs": [
        {
          "internalType": "uint256",
          "name": "shares",
          "type": "uint256"
        }
      ],
      "name": "convertToAssets",
      "outputs": [
        {
          "internalType": "uint256",
          "name": "",
          "type": "uint256"
        }
      ],
      "stateMutability": "view",
      "type": "function"
    },
    {
      "inputs": [
        {
          "internalType": "uint256",
          "name": "assets",
          "type": "uint256"
        }
      ],
      "name": "convertToShares",
      "outputs": [
        {
          "internalType": "uint256",
          "name": "",
          "type": "uint256"
        }
      ],
      "stateMutability": "view",
      "type": "function"
    },
    {
      "inputs": [],
      "name": "decimals",
      "outputs": [
        {
          "internalType": "uint8",
          "name": "",
          "type": "uint8"
        }
      ],
      "stateMutability": "view",
      "type": "function"
    },
    {
      "inputs": [
        {
          "internalType": "uint256",
          "name": "assets",
          "type": "uint256"
        },
        {
          "internalType": "address",
          "name": "receiver",
          "type": "address"
        }
      ],
      "name": "deposit",
      "outputs": [
        {
          "internalType": "uint256",
          "name": "",
          "type": "uint256"
        }
      ],
      "stateMutability": "nonpayable",
      "type": "function"
    },
    {
      "inputs": [
        {
          "internalType": "address",
          "name": "",
          "type": "address"
        }
      ],
      "name": "maxDeposit",
      "outputs": [
        {
          "internalType": "uint256",
          "name": "",
          "type": "uint256"
        }
      ],
      "stateMutability": "view",
      "type": "function"
    },
    {
      "inputs": [
        {
          "internalType": "address",
          "name": "",
          "type": "address"
        }
      ],
      "name": "maxMint",
      "outputs": [
        {
          "internalType": "uint256",
          "name": "",
          "type": "uint256"
        }
      ],
      "stateMutability": "view",
      "type": "function"
    },
    {
      "inputs": [
        {
          "internalType": "address",
          "name": "owner",
          "type": "address"
        }
      ],
      "name": "maxRedeem",
      "outputs": [
        {
          "internalType": "uint256",
          "name": "",
          "type": "uint256"
        }
      ],
      "stateMutability": "view",
      "type": "function"
    },
    {
      "inputs": [
        {
          "internalType": "address",
          "name": "owner",
          "type": "address"
        }
      ],
      "name": "maxWithdraw",
      "outputs": [
        {
          "internalType": "uint256",
          "name": "",
          "type": "uint256"
        }
      ],
      "stateMutability": "view",
      "type": "function"
    },
    {
      "inputs": [
        {
          "internalType": "uint256",
          "name": "shares",
          "type": "uint256"
        },
        {
          "internalType": "address",
          "name": "receiver",
          "type": "address"
        }
      ],
      "name": "mint",
      "outputs": [
        {
          "internalType": "uint256",
          "name": "",
          "type": "uint256"
        }
      ],
      "stateMutability": "nonpayable",
      "type": "function"
    },
    {
      "inputs": [],
      "name": "name",
      "outputs": [
        {
          "internalType": "string",
          "name": "",
          "type": "string"
        }
      ],
      "stateMutability": "view",
      "type": "function"
    },
    {
      "inputs": [
        {
          "internalType": "uint256",
          "name": "assets",
          "type": "uint256"
        }
      ],
      "name": "previewDeposit",
      "outputs": [
        {
          "internalType": "uint256",
          "name": "",
          "type": "uint256"
        }
      ],
      "stateMutability": "view",
      "type": "function"
    },
    {
      "inputs": [
        {
          "internalType": "uint256",
          "name": "shares",
          "type": "uint256"
        }
      ],
      "name": "previewMint",
      "outputs": [
        {
          "internalType": "uint256",
          "name": "",
          "type": "uint256"
        }
      ],
      "stateMutability": "view",
      "type": "function"
    },
    {
      "inputs": [
        {
          "internalType": "uint256",
          "name": "shares",
          "type": "uint256"
        }
      ],
      "name": "previewRedeem",
      "outputs": [
        {
          "internalType": "uint256",
          "name": "",
          "type": "uint256"
        }
      ],
      "stateMutability": "view",
      "type": "function"
    },
    {
      "inputs": [
        {
          "internalType": "uint256",
          "name": "assets",
          "type": "uint256"
        }
      ],
      "name": "previewWithdraw",
      "outputs": [
        {
          "internalType": "uint256",
          "name": "",
          "type": "uint256"
        }
      ],
      "stateMutability": "view",
      "type": "function"
    },
    {
      "inputs": [
        {
          "internalType": "uint256",
          "name": "shares",
          "type": "uint256"
        },
        {
          "internalType": "address",
          "name": "receiver",
          "type": "address"
        },
        {
          "internalType": "address",
          "name": "owner",
          "type": "address"
        }
      ],
      "name": "redeem",
      "outputs": [
        {
          "internalType": "uint256",
          "name": "",
          "type": "uint256"
        }
      ],
      "stateMutability": "nonpayable",
      "type": "function"
    },
    {
      "inputs": [],
      "name": "symbol",
      "outputs": [
        {
          "internalType": "string",
          "name": "",
          "type": "string"
        }
      ],
      "stateMutability": "view",
      "type": "function"
    },
    {
      "inputs": [],
      "name": "totalAssets",
      "outputs": [
        {
          "internalType": "uint256",
          "name": "",
          "type": "uint256"
        }
      ],
      "stateMutability": "view",
      "type": "function"
    },
    {
      "inputs": [],
      "name": "totalSupply",
      "outputs": [
        {
          "internalType": "uint256",
          "name": "",
          "type": "uint256"
        }
      ],
      "stateMutability": "view",
      "type": "function"
    },
    {
      "inputs": [
        {
          "internalType": "address",
          "name": "to",
          "type": "address"
        },
        {
          "internalType": "uint256",
          "name": "value",
          "type": "uint256"
        }
      ],
      "name": "transfer",
      "outputs": [
        {
          "internalType": "bool",
          "name": "",
          "type": "bool"
        }
      ],
      "stateMutability": "nonpayable",
      "type": "function"
    },
    {
      "inputs": [
        {
          "internalType": "address",
          "name": "from",
          "type": "address"
        },
        {
          "internalType": "address",
          "name": "to",
          "type": "address"
        },
        {
          "internalType": "uint256",
          "name": "value",
          "type": "uint256"
        }
      ],
      "name": "transferFrom",
      "outputs": [
        {
          "internalType": "bool",
          "name": "",
          "type": "bool"
        }
      ],
      "stateMutability": "nonpayable",
      "type": "function"
    },
    {
      "inputs": [
        {
          "internalType": "uint256",
          "name": "assets",
          "type": "uint256"
        },
        {
          "internalType": "address",
          "name": "receiver",
          "type": "address"
        },
        {
          "internalType": "address",
          "name": "owner",
          "type": "address"
        }
      ],
      "name": "withdraw",
      "outputs": [
        {
          "internalType": "uint256",
          "name": "",
          "type": "uint256"
        }
      ],
      "stateMutability": "nonpayable",
      "type": "function"
    }
  ],
  "bytecode": "0x60c060405234801561000f575f5ffd5b5060405161154338038061154383398101604081905261002e916101dc565b828282600361003d83826102e2565b50600461004a82826102e2565b5050505f5f61005e8361008d60201b60201c565b915091508161006e576012610070565b805b60ff1660a05250506001600160a01b03166080525061039c915050565b5f808061009960405190565b6040805160048152602481019091526020810180516001600160e01b0390811663313ce56760e01b179091529192505f9182916100d99188919061011e16565b5090925090506100e883604052565b8180156100f6575060203d10155b8015610103575060ff8111155b61010e575f5f610112565b6001815b94509450505050915091565b5f5f5f60405f855160208701885afa92505f51915060205190509250925092565b634e487b7160e01b5f52604160045260245ffd5b5f82601f830112610162575f5ffd5b81516001600160401b0381111561017b5761017b61013f565b604051601f8201601f19908116603f011681016001600160401b03811182821017156101a9576101a961013f565b6040528181528382016020018510156101c0575f5ffd5b8160208501602083015e5f918101602001919091529392505050565b5f5f5f606084860312156101ee575f5ffd5b83516001600160a01b0381168114610204575f5ffd5b60208501519093506001600160401b0381111561021f575f5ffd5b61022b86828701610153565b604086015190935090506001600160401b03811115610248575f5ffd5b61025486828701610153565b9150509250925092565b600181811c9082168061027257607f821691505b60208210810361029057634e487b7160e01b5f52602260045260245ffd5b50919050565b601f8211156102dd57805f5260205f20601f840160051c810160208510156102bb5750805b601f840160051c820191505b818110156102da575f81556001016102c7565b50505b505050565b81516001600160401b038111156102fb576102fb61013f565b61030f81610309845461025e565b84610296565b6020601f821160018114610341575f831561032a5750848201515b5f19600385901b1c1916600184901b1784556102da565b5f84815260208120601f198516915b828110156103705787850151825560209485019460019092019101610350565b508482101561038d57868401515f19600387901b60f8161c191681555b50505050600190811b01905550565b60805160a0516111716103d25f395f6104fd01525f818161022c0152818161038001528181610ad70152610b6f01526111715ff3fe608060405234801561000f575f5ffd5b506004361061016d575f3560e01c806370a08231116100d9578063ba08765211610093578063ce96cb771161006e578063ce96cb771461031f578063d905777e14610332578063dd62ed3e14610345578063ef8b30f71461030c575f5ffd5b8063ba087652146102f9578063c63d75b614610256578063c6e6f5921461030c575f5ffd5b806370a082311461027d57806394bf804d146102a557806395d89b41146102b8578063a9059cbb146102c0578063b3d7f6b9146102d3578063b460af94146102e6575f5ffd5b806323b872dd1161012a57806323b872dd146101f2578063313ce5671461020557806338d52e0f1461021f578063402d267d146102565780634cdad506146101a15780636e553f651461026a575f5ffd5b806301e1d1141461017157806306fdde031461018c57806307a2d13a146101a1578063095ea7b3146101b45780630a28a477146101d757806318160ddd146101ea575b5f5ffd5b61017961037d565b6040519081526020015b60405180910390f35b61019461040c565b6040516101839190610dd8565b6101796101af366004610e0d565b61049c565b6101c76101c2366004610e3f565b6104ad565b6040519015158152602001610183565b6101796101e5366004610e0d565b6104c4565b600254610179565b6101c7610200366004610e67565b6104d0565b61020d6104f5565b60405160ff9091168152602001610183565b6040516001600160a01b037f0000000000000000000000000000000000000000000000000000000000000000168152602001610183565b610179610264366004610ea1565b505f1990565b610179610278366004610eba565b610521565b61017961028b366004610ea1565b6001600160a01b03165f9081526020819052604090205490565b6101796102b3366004610eba565b610552565b61019461056d565b6101c76102ce366004610e3f565b61057c565b6101796102e1366004610e0d565b610589565b6101796102f4366004610ee4565b610595565b610179610307366004610ee4565b6105eb565b61017961031a366004610e0d565b610638565b61017961032d366004610ea1565b610643565b610179610340366004610ea1565b61064c565b610179610353366004610f1d565b6001600160a01b039182165f90815260016020908152604080832093909416825291909152205490565b5f7f00000000000000000000000000000000000000000000000000000000000000006040516370a0823160e01b81523060048201526001600160a01b0391909116906370a0823190602401602060405180830381865afa1580156103e3573d5f5f3e3d5ffd5b505050506040513d601f19601f820116820180604052508101906104079190610f45565b905090565b60606003805461041b90610f5c565b80601f016020809104026020016040519081016040528092919081815260200182805461044790610f5c565b80156104925780601f1061046957610100808354040283529160200191610492565b820191905f5260205f20905b81548152906001019060200180831161047557829003601f168201915b5050505050905090565b5f6104a7825f610669565b92915050565b5f336104ba8185856106a2565b5060019392505050565b5f6104a78260016106b4565b5f336104dd8582856106e4565b6104e885858561074d565b60019150505b9392505050565b5f61040760037f0000000000000000000000000000000000000000000000000000000000000000610fa8565b5f5f19610532565b60405180910390fd5b5f61053c85610638565b905061054a338587846107aa565b949350505050565b5f5f195f61055f85610589565b905061054a338583886107aa565b60606004805461041b90610f5c565b5f336104ba81858561074d565b5f6104a7826001610669565b5f5f6105a083610643565b9050808511156105c957828582604051633fa733bb60e21b815260040161052993929190610fc1565b5f6105d3866104c4565b90506105e2338686898561081a565b95945050505050565b5f5f6105f68361064c565b90508085111561061f57828582604051632e52afbb60e21b815260040161052993929190610fc1565b5f6106298661049c565b90506105e2338686848a61081a565b5f6104a7825f6106b4565b5f6104a76101af835b6001600160a01b0381165f908152602081905260408120546104a7565b5f6104ee61067561037d565b610680906001610fe2565b61068c6003600a6110d8565b6002546106999190610fe2565b859190856108b9565b6106af83838360016108fb565b505050565b5f6104ee6106c46003600a6110d8565b6002546106d19190610fe2565b6106d961037d565b610699906001610fe2565b6001600160a01b038381165f908152600160209081526040808320938616835292905220545f19811015610747578181101561073957828183604051637dc7a0d960e11b815260040161052993929190610fc1565b61074784848484035f6108fb565b50505050565b6001600160a01b03831661077657604051634b637e8f60e11b81525f6004820152602401610529565b6001600160a01b03821661079f5760405163ec442f0560e01b81525f6004820152602401610529565b6106af8383836109bf565b6107b48483610ad2565b6107be8382610b02565b826001600160a01b0316846001600160a01b03167fdcbc1c05240f31ff3ad067ef1ee35ce4997762752e3a095284754544f4c709d7848460405161080c929190918252602082015260400190565b60405180910390a350505050565b826001600160a01b0316856001600160a01b03161461083e5761083e8386836106e4565b6108488382610b36565b6108528483610b6a565b826001600160a01b0316846001600160a01b0316866001600160a01b03167ffbde797d201c681b91056529119e0b02407c7bb96a4a2c75c01fc9667232c8db85856040516108aa929190918252602082015260400190565b60405180910390a45050505050565b5f6108e66108c683610b95565b80156108e157505f84806108dc576108dc6110e6565b868809115b151590565b6108f1868686610bc1565b6105e29190610fe2565b6001600160a01b0384166109245760405163e602df0560e01b81525f6004820152602401610529565b6001600160a01b03831661094d57604051634a1406b160e11b81525f6004820152602401610529565b6001600160a01b038085165f908152600160209081526040808320938716835292905220829055801561074757826001600160a01b0316846001600160a01b03167f8c5be1e5ebec7d5bd14f71427d1e84f3dd0314c0f7b2291e5b200ac8c7c3b9258460405161080c91815260200190565b6001600160a01b0383166109e9578060025f8282546109de9190610fe2565b90915550610a469050565b6001600160a01b0383165f9081526020819052604090205481811015610a285783818360405163391434e360e21b815260040161052993929190610fc1565b6001600160a01b0384165f9081526020819052604090209082900390555b6001600160a01b038216610a6257600280548290039055610a80565b6001600160a01b0382165f9081526020819052604090208054820190555b816001600160a01b0316836001600160a01b03167fddf252ad1be2c89b69c2b068fc378daa952ba7f163c4a11628f55a4df523b3ef83604051610ac591815260200190565b60405180910390a3505050565b610afe7f0000000000000000000000000000000000000000000000000000000000000000833084610c71565b5050565b6001600160a01b038216610b2b5760405163ec442f0560e01b81525f6004820152602401610529565b610afe5f83836109bf565b6001600160a01b038216610b5f57604051634b637e8f60e11b81525f6004820152602401610529565b610afe825f836109bf565b610afe7f00000000000000000000000000000000000000000000000000000000000000008383610ca7565b5f6002826003811115610baa57610baa6110fa565b610bb4919061110e565b60ff166001149050919050565b5f5f5f610bce8686610cdc565b91509150815f03610bf257838181610be857610be86110e6565b04925050506104ee565b818411610c0957610c096003851502601118610cf8565b5f848688095f868103871696879004966002600389028118808a02820302808a02820302808a02820302808a02820302808a02820302808a02909103029181900381900460010185841190960395909502919093039390930492909217029150509392505050565b610c7f848484846001610d09565b61074757604051635274afe760e01b81526001600160a01b0385166004820152602401610529565b610cb48383836001610d76565b6106af57604051635274afe760e01b81526001600160a01b0384166004820152602401610529565b5f805f1983850993909202808410938190039390930393915050565b634e487b715f52806020526024601cfd5b6040516323b872dd60e01b5f8181526001600160a01b038781166004528616602452604485905291602083606481808c5af1925060015f51148316610d65578383151615610d59573d5f823e3d81fd5b5f883b113d1516831692505b604052505f60605295945050505050565b60405163a9059cbb60e01b5f8181526001600160a01b038616600452602485905291602083604481808b5af1925060015f51148316610dcc578383151615610dc0573d5f823e3d81fd5b5f873b113d1516831692505b60405250949350505050565b602081525f82518060208401528060208501604085015e5f604082850101526040601f19601f83011684010191505092915050565b5f60208284031215610e1d575f5ffd5b5035919050565b80356001600160a01b0381168114610e3a575f5ffd5b919050565b5f5f60408385031215610e50575f5ffd5b610e5983610e24565b946020939093013593505050565b5f5f5f60608486031215610e79575f5ffd5b610e8284610e24565b9250610e9060208501610e24565b929592945050506040919091013590565b5f60208284031215610eb1575f5ffd5b6104ee82610e24565b5f5f60408385031215610ecb575f5ffd5b82359150610edb60208401610e24565b90509250929050565b5f5f5f60608486031215610ef6575f5ffd5b83359250610f0660208501610e24565b9150610f1460408501610e24565b90509250925092565b5f5f60408385031215610f2e575f5ffd5b610f3783610e24565b9150610edb60208401610e24565b5f60208284031215610f55575f5ffd5b5051919050565b600181811c90821680610f7057607f821691505b602082108103610f8e57634e487b7160e01b5f52602260045260245ffd5b50919050565b634e487b7160e01b5f52601160045260245ffd5b60ff81811683821601908111156104a7576104a7610f94565b6001600160a01b039390931683526020830191909152604082015260600190565b808201808211156104a7576104a7610f94565b6001815b60018411156110305780850481111561101457611014610f94565b600184161561102257908102905b60019390931c928002610ff9565b935093915050565b5f82611046575060016104a7565b8161105257505f6104a7565b816001811461106857600281146110725761108e565b60019150506104a7565b60ff84111561108357611083610f94565b50506001821b6104a7565b5060208310610133831016604e8410600b84101617156110b1575081810a6104a7565b6110bd5f198484610ff5565b805f19048211156110d0576110d0610f94565b029392505050565b5f6104ee60ff841683611038565b634e487b7160e01b5f52601260045260245ffd5b634e487b7160e01b5f52602160045260245ffd5b5f60ff83168061112c57634e487b7160e01b5f52601260045260245ffd5b8060ff8416069150509291505056fea264697066735822122086e644dce51c8684b040ba8d8e767f47300af7da412494aaa0a00ff5073d181264736f6c634300081c0033",
  "linkReferences": {},
  "deployedLinkReferences": {}
}